{
  "_format": "hh-sol-artifact-1",
  "contractName": "CrossMarginTrading",
  "sourceName": "contracts/CrossMarginTrading.sol",
  "abi": [
    {
      "inputs": [],
      "stateMutability": "nonpayable",
      "type": "constructor"
    },
    {
      "stateMutability": "payable",
      "type": "fallback"
    },
    {
      "inputs": [
        {
          "internalType": "uint256",
          "name": "amount",
          "type": "uint256"
        }
      ],
      "name": "depositIntoMarginAccount",
      "outputs": [],
      "stateMutability": "nonpayable",
      "type": "function"
    },
    {
      "inputs": [],
      "name": "i_swapRouter",
      "outputs": [
        {
          "internalType": "contract ISwapRouter",
          "name": "",
          "type": "address"
        }
      ],
      "stateMutability": "view",
      "type": "function"
    },
    {
      "inputs": [
        {
          "internalType": "contract IERC20[]",
          "name": "tokens",
          "type": "address[]"
        },
        {
          "internalType": "uint256[]",
          "name": "amounts",
          "type": "uint256[]"
        },
        {
          "internalType": "uint256[]",
          "name": "",
          "type": "uint256[]"
        },
        {
          "internalType": "bytes",
          "name": "userData",
          "type": "bytes"
        }
      ],
      "name": "receiveFlashLoan",
      "outputs": [],
      "stateMutability": "nonpayable",
      "type": "function"
    },
    {
      "inputs": [
        {
          "internalType": "uint256",
          "name": "repay",
          "type": "uint256"
        },
        {
          "internalType": "address",
          "name": "tokenAddress",
          "type": "address"
        },
        {
          "internalType": "uint8",
          "name": "direction",
          "type": "uint8"
        },
        {
          "internalType": "uint256",
          "name": "profit",
          "type": "uint256"
        }
      ],
      "name": "requestClose",
      "outputs": [],
      "stateMutability": "nonpayable",
      "type": "function"
    },
    {
      "inputs": [
        {
          "internalType": "uint256",
          "name": "amount",
          "type": "uint256"
        },
        {
          "internalType": "address",
          "name": "tokenAddress",
          "type": "address"
        },
        {
          "internalType": "uint8",
          "name": "direction",
          "type": "uint8"
        }
      ],
      "name": "requestOpen",
      "outputs": [],
      "stateMutability": "nonpayable",
      "type": "function"
    },
    {
      "inputs": [
        {
          "internalType": "uint256",
          "name": "amount",
          "type": "uint256"
        }
      ],
      "name": "withdrawFromMarginAccount",
      "outputs": [],
      "stateMutability": "nonpayable",
      "type": "function"
    },
    {
      "stateMutability": "payable",
      "type": "receive"
    }
  ],
  "bytecode": "0x61010060405234801561001157600080fd5b5073e592427a0aece92de3edee1f18e0157c0586156473ffffffffffffffffffffffffffffffffffffffff1660808173ffffffffffffffffffffffffffffffffffffffff1660601b8152505073b27308f9f90d607463bb33ea1bebb41c27ce5ab673ffffffffffffffffffffffffffffffffffffffff1660a08173ffffffffffffffffffffffffffffffffffffffff1660601b8152505073a97684ead0e402dc232d5a977953df7ecbab3cdb73ffffffffffffffffffffffffffffffffffffffff1660c08173ffffffffffffffffffffffffffffffffffffffff1660601b8152505073ba12222222228d8ba445958a75a0704d566bf2c873ffffffffffffffffffffffffffffffffffffffff1660e08173ffffffffffffffffffffffffffffffffffffffff1660601b81525050732791bca1f2de4661ed88a30c99a7a9449aa841746000806101000a81548173ffffffffffffffffffffffffffffffffffffffff021916908373ffffffffffffffffffffffffffffffffffffffff16021790555073625e7708f30ca75bfd92586e17077590c60eb4cd60026000732791bca1f2de4661ed88a30c99a7a9449aa8417473ffffffffffffffffffffffffffffffffffffffff1673ffffffffffffffffffffffffffffffffffffffff16815260200190815260200160002060006101000a81548173ffffffffffffffffffffffffffffffffffffffff021916908373ffffffffffffffffffffffffffffffffffffffff160217905550736d80113e533a2c0fe82eabd35f1875dcea89ea9760026000730d500b1d8e8ef31e21c99d1db9a6444d3adf127073ffffffffffffffffffffffffffffffffffffffff1673ffffffffffffffffffffffffffffffffffffffff16815260200190815260200160002060006101000a81548173ffffffffffffffffffffffffffffffffffffffff021916908373ffffffffffffffffffffffffffffffffffffffff16021790555073e50fa9b3c56ffb159cb0fca61f5c9d750e8128c860026000737ceb23fd6bc0add59e62ac25578270cff1b9f61973ffffffffffffffffffffffffffffffffffffffff1673ffffffffffffffffffffffffffffffffffffffff16815260200190815260200160002060006101000a81548173ffffffffffffffffffffffffffffffffffffffff021916908373ffffffffffffffffffffffffffffffffffffffff16021790555073078f358208685046a11c85e8ad32895ded33a24960026000731bfd67037b42cf73acf2047067bd4f2c47d9bfd673ffffffffffffffffffffffffffffffffffffffff1673ffffffffffffffffffffffffffffffffffffffff16815260200190815260200160002060006101000a81548173ffffffffffffffffffffffffffffffffffffffff021916908373ffffffffffffffffffffffffffffffffffffffff16021790555073ea1132120ddcdda2f119e99fa7a27a0d036f7ac960026000733a58a54c066fdc0f2d55fc9c89f0415c92ebf3c473ffffffffffffffffffffffffffffffffffffffff1673ffffffffffffffffffffffffffffffffffffffff16815260200190815260200160002060006101000a81548173ffffffffffffffffffffffffffffffffffffffff021916908373ffffffffffffffffffffffffffffffffffffffff16021790555073191c10aa4af7c30e871e70c95db0e4eb77237530600260007353e0bca35ec356bd5dddfebbd1fc0fd03fabad3973ffffffffffffffffffffffffffffffffffffffff1673ffffffffffffffffffffffffffffffffffffffff16815260200190815260200160002060006101000a81548173ffffffffffffffffffffffffffffffffffffffff021916908373ffffffffffffffffffffffffffffffffffffffff16021790555060805160601c60a05160601c60c05160601c60e05160601c6159e46200062c6000396000818161039901528181610a2a01526112dd0152600081816104340152610b0201526000818161172201528181611c2a0152818161222e01528181613141015261379501526000818161015c015281816115c2015281816117fa01528181611aca01528181611d02015281816120900152818161230601528181613219015281816135f7015261386d01526159e46000f3fe6080604052600436106100595760003560e01c806358fb80541461006257806397a014891461008d578063b87e8729146100b6578063b9fb1259146100df578063d254127414610108578063f04f27071461013157610060565b3661006057005b005b34801561006e57600080fd5b5061007761015a565b6040516100849190615364565b60405180910390f35b34801561009957600080fd5b506100b460048036038101906100af9190614cc9565b61017e565b005b3480156100c257600080fd5b506100dd60048036038101906100d89190614c1c565b610432565b005b3480156100eb57600080fd5b5061010660048036038101906101019190614c76565b61080e565b005b34801561011457600080fd5b5061012f600480360381019061012a9190614c1c565b610ac2565b005b34801561013d57600080fd5b5061015860048036038101906101539190614b18565b610f9b565b005b7f000000000000000000000000000000000000000000000000000000000000000081565b61019f60405180606001604052806022815260200161596c602291396113b9565b60003390506000600167ffffffffffffffff8111156101c1576101c06157a1565b5b6040519080825280602002602001820160405280156101ef5781602001602082028036833780820191505090505b5090506000600167ffffffffffffffff81111561020f5761020e6157a1565b5b60405190808252806020026020018201604052801561023d5781602001602082028036833780820191505090505b5090506000868487876040516020016102599493929190615188565b604051602081830303815290604052905060028660ff16146102e85760008054906101000a900473ffffffffffffffffffffffffffffffffffffffff16836000815181106102aa576102a9615772565b5b602002602001019073ffffffffffffffffffffffffffffffffffffffff16908173ffffffffffffffffffffffffffffffffffffffff16815250610337565b86836000815181106102fd576102fc615772565b5b602002602001019073ffffffffffffffffffffffffffffffffffffffff16908173ffffffffffffffffffffffffffffffffffffffff168152505b50878260008151811061034d5761034c615772565b5b6020026020010181815250506103976040518060400160405280601781526020017f52657175657374696e6720666c6173686c6f616e2e2e2e0000000000000000008152506113b9565b7f000000000000000000000000000000000000000000000000000000000000000073ffffffffffffffffffffffffffffffffffffffff16635c38449e308585856040518563ffffffff1660e01b81526004016103f6949392919061530a565b600060405180830381600087803b15801561041057600080fd5b505af1158015610424573d6000803e3d6000fd5b505050505050505050505050565b7f000000000000000000000000000000000000000000000000000000000000000073ffffffffffffffffffffffffffffffffffffffff1663026b1d5f6040518163ffffffff1660e01b815260040160206040518083038186803b15801561049857600080fd5b505afa1580156104ac573d6000803e3d6000fd5b505050506040513d601f19601f820116820180604052508101906104d09190614a84565b600160006101000a81548173ffffffffffffffffffffffffffffffffffffffff021916908373ffffffffffffffffffffffffffffffffffffffff160217905550600160009054906101000a900473ffffffffffffffffffffffffffffffffffffffff16600360006101000a81548173ffffffffffffffffffffffffffffffffffffffff021916908373ffffffffffffffffffffffffffffffffffffffff1602179055506000600260008060009054906101000a900473ffffffffffffffffffffffffffffffffffffffff1673ffffffffffffffffffffffffffffffffffffffff1673ffffffffffffffffffffffffffffffffffffffff16815260200190815260200160002060009054906101000a900473ffffffffffffffffffffffffffffffffffffffff1690508073ffffffffffffffffffffffffffffffffffffffff166323b872dd3330856040518463ffffffff1660e01b81526004016106359392919061510c565b602060405180830381600087803b15801561064f57600080fd5b505af1158015610663573d6000803e3d6000fd5b505050506040513d601f19601f820116820180604052508101906106879190614bef565b508073ffffffffffffffffffffffffffffffffffffffff1663095ea7b3600360009054906101000a900473ffffffffffffffffffffffffffffffffffffffff16846040518363ffffffff1660e01b81526004016106e59291906151cd565b602060405180830381600087803b1580156106ff57600080fd5b505af1158015610713573d6000803e3d6000fd5b505050506040513d601f19601f820116820180604052508101906107379190614bef565b50600360009054906101000a900473ffffffffffffffffffffffffffffffffffffffff1673ffffffffffffffffffffffffffffffffffffffff166369328dec60008054906101000a900473ffffffffffffffffffffffffffffffffffffffff1684336040518463ffffffff1660e01b81526004016107b7939291906151f6565b602060405180830381600087803b1580156107d157600080fd5b505af11580156107e5573d6000803e3d6000fd5b505050506040513d601f19601f820116820180604052508101906108099190614c49565b505050565b61082f6040518060600160405280602181526020016158fe602191396113b9565b60003390506000600167ffffffffffffffff811115610851576108506157a1565b5b60405190808252806020026020018201604052801561087f5781602001602082028036833780820191505090505b5090506000600167ffffffffffffffff81111561089f5761089e6157a1565b5b6040519080825280602002602001820160405280156108cd5781602001602082028036833780820191505090505b509050600085848660006040516020016108ea9493929190615143565b604051602081830303815290604052905060008560ff161461095957858360008151811061091b5761091a615772565b5b602002602001019073ffffffffffffffffffffffffffffffffffffffff16908173ffffffffffffffffffffffffffffffffffffffff168152506109c8565b60008054906101000a900473ffffffffffffffffffffffffffffffffffffffff168360008151811061098e5761098d615772565b5b602002602001019073ffffffffffffffffffffffffffffffffffffffff16908173ffffffffffffffffffffffffffffffffffffffff168152505b5086826000815181106109de576109dd615772565b5b602002602001018181525050610a286040518060400160405280601b81526020017f466c6173686c6f616e20686173206265656e2073657475702e2e2e00000000008152506113b9565b7f000000000000000000000000000000000000000000000000000000000000000073ffffffffffffffffffffffffffffffffffffffff16635c38449e308585856040518563ffffffff1660e01b8152600401610a87949392919061530a565b600060405180830381600087803b158015610aa157600080fd5b505af1158015610ab5573d6000803e3d6000fd5b5050505050505050505050565b610b006040518060400160405280601d81526020017f456e7465726564206465706f73697428292046756e6374696f6e2e2e2e0000008152506113b9565b7f000000000000000000000000000000000000000000000000000000000000000073ffffffffffffffffffffffffffffffffffffffff1663026b1d5f6040518163ffffffff1660e01b815260040160206040518083038186803b158015610b6657600080fd5b505afa158015610b7a573d6000803e3d6000fd5b505050506040513d601f19601f82011682018060405250810190610b9e9190614a84565b600160006101000a81548173ffffffffffffffffffffffffffffffffffffffff021916908373ffffffffffffffffffffffffffffffffffffffff160217905550600160009054906101000a900473ffffffffffffffffffffffffffffffffffffffff16600360006101000a81548173ffffffffffffffffffffffffffffffffffffffff021916908373ffffffffffffffffffffffffffffffffffffffff160217905550610c7f6040518060400160405280602081526020017f506f6f6c20696e7374616e746961746564207769746820616464726573733a208152506113b9565b610caa600360009054906101000a900473ffffffffffffffffffffffffffffffffffffffff16611452565b60008054906101000a900473ffffffffffffffffffffffffffffffffffffffff1673ffffffffffffffffffffffffffffffffffffffff166323b872dd3330846040518463ffffffff1660e01b8152600401610d079392919061510c565b602060405180830381600087803b158015610d2157600080fd5b505af1158015610d35573d6000803e3d6000fd5b505050506040513d601f19601f82011682018060405250810190610d599190614bef565b50610d986040518060400160405280601581526020017f416d6f756e74205472616e736665727265642e2e2e00000000000000000000008152506113b9565b60008054906101000a900473ffffffffffffffffffffffffffffffffffffffff1673ffffffffffffffffffffffffffffffffffffffff1663095ea7b3600160009054906101000a900473ffffffffffffffffffffffffffffffffffffffff16836040518363ffffffff1660e01b8152600401610e159291906151cd565b602060405180830381600087803b158015610e2f57600080fd5b505af1158015610e43573d6000803e3d6000fd5b505050506040513d601f19601f82011682018060405250810190610e679190614bef565b50610ea66040518060400160405280601281526020017f416d6f756e7420417070726f7665642e2e2e00000000000000000000000000008152506113b9565b600360009054906101000a900473ffffffffffffffffffffffffffffffffffffffff1673ffffffffffffffffffffffffffffffffffffffff1663617ba03760008054906101000a900473ffffffffffffffffffffffffffffffffffffffff16833360006040518563ffffffff1660e01b8152600401610f28949392919061522d565b600060405180830381600087803b158015610f4257600080fd5b505af1158015610f56573d6000803e3d6000fd5b50505050610f986040518060400160405280601381526020017f537570706c69656420746f20416176652e2e2e000000000000000000000000008152506113b9565b50565b610fd96040518060400160405280601d81526020017f466c6173686c6f616e20726571756573742072656365697665642e2e2e0000008152506113b9565b600084600081518110610fef57610fee615772565b5b6020026020010151905060008460008151811061100f5761100e615772565b5b60200260200101519050600080600080868060200190518101906110339190614ab1565b935093509350935060008473ffffffffffffffffffffffffffffffffffffffff166370a08231306040518263ffffffff1660e01b8152600401611076919061509e565b60206040518083038186803b15801561108e57600080fd5b505afa1580156110a2573d6000803e3d6000fd5b505050506040513d601f19601f820116820180604052508101906110c69190614c49565b90506110e96040518060600160405280602a8152602001615885602a91396113b9565b6110f2816114eb565b60008060009054906101000a900473ffffffffffffffffffffffffffffffffffffffff1673ffffffffffffffffffffffffffffffffffffffff166370a08231306040518263ffffffff1660e01b815260040161114e919061509e565b60206040518083038186803b15801561116657600080fd5b505afa15801561117a573d6000803e3d6000fd5b505050506040513d601f19601f8201168201806040525081019061119e9190614c49565b90506111c160405180606001604052806021815260200161598e602191396113b9565b6111ca816114eb565b60008460ff161415611207576111f760405180606001604052806026815260200161591f602691396113b9565b611202878787611584565b6112bf565b60018460ff161415611244576112346040518060600160405280602781526020016158af602791396113b9565b61123f878787611aac565b6112be565b60028460ff16141561128257611271604051806060016040528060278152602001615945602791396113b9565b61127d87878786611fd5565b6112bd565b60038460ff1614156112bc576112af6040518060600160405280602881526020016158d6602891396113b9565b6112bb87878786613521565b5b5b5b5b8773ffffffffffffffffffffffffffffffffffffffff1663a9059cbb7f0000000000000000000000000000000000000000000000000000000000000000896040518363ffffffff1660e01b815260040161131a9291906151cd565b602060405180830381600087803b15801561133457600080fd5b505af1158015611348573d6000803e3d6000fd5b505050506040513d601f19601f8201168201806040525081019061136c9190614bef565b506113ab6040518060400160405280601d81526020017f466c6173686c6f616e20686173206265656e20726570617965642e2e2e0000008152506113b9565b505050505050505050505050565b61144f816040516024016113cd919061537f565b6040516020818303038152906040527f41304fac000000000000000000000000000000000000000000000000000000007bffffffffffffffffffffffffffffffffffffffffffffffffffffffff19166020820180517bffffffffffffffffffffffffffffffffffffffffffffffffffffffff83818316178352505050506147f2565b50565b6114e881604051602401611466919061509e565b6040516020818303038152906040527f2c2ecbc2000000000000000000000000000000000000000000000000000000007bffffffffffffffffffffffffffffffffffffffffffffffffffffffff19166020820180517bffffffffffffffffffffffffffffffffffffffffffffffffffffffff83818316178352505050506147f2565b50565b611581816040516024016114ff91906153bd565b6040516020818303038152906040527ff82c50f1000000000000000000000000000000000000000000000000000000007bffffffffffffffffffffffffffffffffffffffffffffffffffffffff19166020820180517bffffffffffffffffffffffffffffffffffffffffffffffffffffffff83818316178352505050506147f2565b50565b60008054906101000a900473ffffffffffffffffffffffffffffffffffffffff1673ffffffffffffffffffffffffffffffffffffffff1663095ea7b37f0000000000000000000000000000000000000000000000000000000000000000856040518363ffffffff1660e01b81526004016115ff9291906151cd565b602060405180830381600087803b15801561161957600080fd5b505af115801561162d573d6000803e3d6000fd5b505050506040513d601f19601f820116820180604052508101906116519190614bef565b50600060405180610100016040528060008054906101000a900473ffffffffffffffffffffffffffffffffffffffff1673ffffffffffffffffffffffffffffffffffffffff1681526020018473ffffffffffffffffffffffffffffffffffffffff168152602001610bb862ffffff1681526020013073ffffffffffffffffffffffffffffffffffffffff168152602001610258426116ef9190615530565b815260200185815260200160008152602001600073ffffffffffffffffffffffffffffffffffffffff16815250905060007f000000000000000000000000000000000000000000000000000000000000000073ffffffffffffffffffffffffffffffffffffffff1663f7729d4360008054906101000a900473ffffffffffffffffffffffffffffffffffffffff1686610bb88960006040518663ffffffff1660e01b81526004016117a49594939291906150b9565b602060405180830381600087803b1580156117be57600080fd5b505af11580156117d2573d6000803e3d6000fd5b505050506040513d601f19601f820116820180604052508101906117f69190614c49565b90507f000000000000000000000000000000000000000000000000000000000000000073ffffffffffffffffffffffffffffffffffffffff1663414bf389836040518263ffffffff1660e01b815260040161185191906153a1565b602060405180830381600087803b15801561186b57600080fd5b505af115801561187f573d6000803e3d6000fd5b505050506040513d601f19601f820116820180604052508101906118a39190614c49565b5060008490508073ffffffffffffffffffffffffffffffffffffffff1663095ea7b3600160009054906101000a900473ffffffffffffffffffffffffffffffffffffffff16846040518363ffffffff1660e01b81526004016119069291906151cd565b602060405180830381600087803b15801561192057600080fd5b505af1158015611934573d6000803e3d6000fd5b505050506040513d601f19601f820116820180604052508101906119589190614bef565b50600360009054906101000a900473ffffffffffffffffffffffffffffffffffffffff1673ffffffffffffffffffffffffffffffffffffffff1663617ba03786848760006040518563ffffffff1660e01b81526004016119bb949392919061522d565b600060405180830381600087803b1580156119d557600080fd5b505af11580156119e9573d6000803e3d6000fd5b50505050600360009054906101000a900473ffffffffffffffffffffffffffffffffffffffff1673ffffffffffffffffffffffffffffffffffffffff1663a415bcad60008054906101000a900473ffffffffffffffffffffffffffffffffffffffff168860026000896040518663ffffffff1660e01b8152600401611a729594939291906152b7565b600060405180830381600087803b158015611a8c57600080fd5b505af1158015611aa0573d6000803e3d6000fd5b50505050505050505050565b8173ffffffffffffffffffffffffffffffffffffffff1663095ea7b37f0000000000000000000000000000000000000000000000000000000000000000856040518363ffffffff1660e01b8152600401611b079291906151cd565b602060405180830381600087803b158015611b2157600080fd5b505af1158015611b35573d6000803e3d6000fd5b505050506040513d601f19601f82011682018060405250810190611b599190614bef565b5060006040518061010001604052808473ffffffffffffffffffffffffffffffffffffffff16815260200160008054906101000a900473ffffffffffffffffffffffffffffffffffffffff1673ffffffffffffffffffffffffffffffffffffffff168152602001610bb862ffffff1681526020013073ffffffffffffffffffffffffffffffffffffffff16815260200161025842611bf79190615530565b815260200185815260200160008152602001600073ffffffffffffffffffffffffffffffffffffffff16815250905060007f000000000000000000000000000000000000000000000000000000000000000073ffffffffffffffffffffffffffffffffffffffff1663f7729d438560008054906101000a900473ffffffffffffffffffffffffffffffffffffffff16610bb88960006040518663ffffffff1660e01b8152600401611cac9594939291906150b9565b602060405180830381600087803b158015611cc657600080fd5b505af1158015611cda573d6000803e3d6000fd5b505050506040513d601f19601f82011682018060405250810190611cfe9190614c49565b90507f000000000000000000000000000000000000000000000000000000000000000073ffffffffffffffffffffffffffffffffffffffff1663414bf389836040518263ffffffff1660e01b8152600401611d5991906153a1565b602060405180830381600087803b158015611d7357600080fd5b505af1158015611d87573d6000803e3d6000fd5b505050506040513d601f19601f82011682018060405250810190611dab9190614c49565b5060008060009054906101000a900473ffffffffffffffffffffffffffffffffffffffff1690508073ffffffffffffffffffffffffffffffffffffffff1663095ea7b3600160009054906101000a900473ffffffffffffffffffffffffffffffffffffffff16846040518363ffffffff1660e01b8152600401611e2f9291906151cd565b602060405180830381600087803b158015611e4957600080fd5b505af1158015611e5d573d6000803e3d6000fd5b505050506040513d601f19601f82011682018060405250810190611e819190614bef565b50600360009054906101000a900473ffffffffffffffffffffffffffffffffffffffff1673ffffffffffffffffffffffffffffffffffffffff1663617ba03760008054906101000a900473ffffffffffffffffffffffffffffffffffffffff16848760006040518563ffffffff1660e01b8152600401611f04949392919061522d565b600060405180830381600087803b158015611f1e57600080fd5b505af1158015611f32573d6000803e3d6000fd5b50505050600360009054906101000a900473ffffffffffffffffffffffffffffffffffffffff1673ffffffffffffffffffffffffffffffffffffffff1663a415bcad868860026000896040518663ffffffff1660e01b8152600401611f9b9594939291906152b7565b600060405180830381600087803b158015611fb557600080fd5b505af1158015611fc9573d6000803e3d6000fd5b50505050505050505050565b6120136040518060400160405280601e81526020017f456e746572656420636c6f73654c6f6e67506f736974696f6e28292e2e2e00008152506113b9565b600081856120219190615530565b90506000806120646040518060400160405280601081526020017f546f74616c20506f736974696f6e3a20000000000000000000000000000000008152506113b9565b61206d836114eb565b60008690508073ffffffffffffffffffffffffffffffffffffffff1663095ea7b37f0000000000000000000000000000000000000000000000000000000000000000866040518363ffffffff1660e01b81526004016120cd9291906151cd565b602060405180830381600087803b1580156120e757600080fd5b505af11580156120fb573d6000803e3d6000fd5b505050506040513d601f19601f8201168201806040525081019061211f9190614bef565b5061215e6040518060400160405280601281526020017f556e6920563320617070726f7665642e2e2e00000000000000000000000000008152506113b9565b60006040518061010001604052808973ffffffffffffffffffffffffffffffffffffffff16815260200160008054906101000a900473ffffffffffffffffffffffffffffffffffffffff1673ffffffffffffffffffffffffffffffffffffffff168152602001610bb862ffffff1681526020013073ffffffffffffffffffffffffffffffffffffffff168152602001610258426121fb9190615530565b81526020018a815260200160008152602001600073ffffffffffffffffffffffffffffffffffffffff16815250905060007f000000000000000000000000000000000000000000000000000000000000000073ffffffffffffffffffffffffffffffffffffffff1663f7729d438a60008054906101000a900473ffffffffffffffffffffffffffffffffffffffff16610bb88e60006040518663ffffffff1660e01b81526004016122b09594939291906150b9565b602060405180830381600087803b1580156122ca57600080fd5b505af11580156122de573d6000803e3d6000fd5b505050506040513d601f19601f820116820180604052508101906123029190614c49565b90507f000000000000000000000000000000000000000000000000000000000000000073ffffffffffffffffffffffffffffffffffffffff1663414bf389836040518263ffffffff1660e01b815260040161235d91906153a1565b602060405180830381600087803b15801561237757600080fd5b505af115801561238b573d6000803e3d6000fd5b505050506040513d601f19601f820116820180604052508101906123af9190614c49565b506123ee6040518060400160405280601281526020017f53776170207375636365737366756c2e2e2e00000000000000000000000000008152506113b9565b6123f7816114eb565b60008054906101000a900473ffffffffffffffffffffffffffffffffffffffff1673ffffffffffffffffffffffffffffffffffffffff1663095ea7b3600160009054906101000a900473ffffffffffffffffffffffffffffffffffffffff16836040518363ffffffff1660e01b81526004016124749291906151cd565b602060405180830381600087803b15801561248e57600080fd5b505af11580156124a2573d6000803e3d6000fd5b505050506040513d601f19601f820116820180604052508101906124c69190614bef565b506125056040518060400160405280601381526020017f4161766520617070726f76656420666f723a20000000000000000000000000008152506113b9565b61250e816114eb565b600360009054906101000a900473ffffffffffffffffffffffffffffffffffffffff1673ffffffffffffffffffffffffffffffffffffffff1663bf92857c896040518263ffffffff1660e01b8152600401612569919061509e565b60c06040518083038186803b15801561258157600080fd5b505afa158015612595573d6000803e3d6000fd5b505050506040513d601f19601f820116820180604052508101906125b99190614d30565b9091925090915090505080955081965050506126096040518060400160405280600d81526020017f43757272656e74205443423a20000000000000000000000000000000000000008152506113b9565b612612856114eb565b6126506040518060400160405280600d81526020017f43757272656e74205444423a20000000000000000000000000000000000000008152506113b9565b612659846114eb565b600360009054906101000a900473ffffffffffffffffffffffffffffffffffffffff1673ffffffffffffffffffffffffffffffffffffffff1663573ade8160008054906101000a900473ffffffffffffffffffffffffffffffffffffffff168360028c6040518563ffffffff1660e01b81526004016126db9493929190615272565b602060405180830381600087803b1580156126f557600080fd5b505af1158015612709573d6000803e3d6000fd5b505050506040513d601f19601f8201168201806040525081019061272d9190614c49565b5061276c6040518060400160405280601381526020017f5265706169642064656274206f6e2041617665000000000000000000000000008152506113b9565b600360009054906101000a900473ffffffffffffffffffffffffffffffffffffffff1673ffffffffffffffffffffffffffffffffffffffff1663bf92857c896040518263ffffffff1660e01b81526004016127c7919061509e565b60c06040518083038186803b1580156127df57600080fd5b505afa1580156127f3573d6000803e3d6000fd5b505050506040513d601f19601f820116820180604052508101906128179190614d30565b9091925090915090505080955081965050506128676040518060400160405280600d81526020017f43757272656e74205443423a20000000000000000000000000000000000000008152506113b9565b612870856114eb565b6128ae6040518060400160405280600d81526020017f43757272656e74205444423a20000000000000000000000000000000000000008152506113b9565b6128b7846114eb565b6000600260008b73ffffffffffffffffffffffffffffffffffffffff1673ffffffffffffffffffffffffffffffffffffffff16815260200190815260200160002060009054906101000a900473ffffffffffffffffffffffffffffffffffffffff1690506129596040518060400160405280601581526020017f557365722061546f6b656e2062616c616e63653a2000000000000000000000008152506113b9565b6129ea8173ffffffffffffffffffffffffffffffffffffffff166370a082318b6040518263ffffffff1660e01b8152600401612995919061509e565b60206040518083038186803b1580156129ad57600080fd5b505afa1580156129c1573d6000803e3d6000fd5b505050506040513d601f19601f820116820180604052508101906129e59190614c49565b6114eb565b8073ffffffffffffffffffffffffffffffffffffffff166323b872dd8a308a6040518463ffffffff1660e01b8152600401612a279392919061510c565b602060405180830381600087803b158015612a4157600080fd5b505af1158015612a55573d6000803e3d6000fd5b505050506040513d601f19601f82011682018060405250810190612a799190614bef565b50612ab86040518060400160405280601a81526020017f52656365697665642061546f6b656e732066726f6d20757365720000000000008152506113b9565b612af66040518060400160405280601481526020017f42616c616e6365206f662061546f6b656e733a200000000000000000000000008152506113b9565b612b878173ffffffffffffffffffffffffffffffffffffffff166370a08231306040518263ffffffff1660e01b8152600401612b32919061509e565b60206040518083038186803b158015612b4a57600080fd5b505afa158015612b5e573d6000803e3d6000fd5b505050506040513d601f19601f82011682018060405250810190612b829190614c49565b6114eb565b600360009054906101000a900473ffffffffffffffffffffffffffffffffffffffff1673ffffffffffffffffffffffffffffffffffffffff166369328dec8b8373ffffffffffffffffffffffffffffffffffffffff166370a08231306040518263ffffffff1660e01b8152600401612bff919061509e565b60206040518083038186803b158015612c1757600080fd5b505afa158015612c2b573d6000803e3d6000fd5b505050506040513d601f19601f82011682018060405250810190612c4f9190614c49565b8c6040518463ffffffff1660e01b8152600401612c6e939291906151f6565b602060405180830381600087803b158015612c8857600080fd5b505af1158015612c9c573d6000803e3d6000fd5b505050506040513d601f19601f82011682018060405250810190612cc09190614c49565b50612cff6040518060400160405280601981526020017f576974686472657720746f6b656e732066726f6d2041617665000000000000008152506113b9565b600360009054906101000a900473ffffffffffffffffffffffffffffffffffffffff1673ffffffffffffffffffffffffffffffffffffffff1663bf92857c8a6040518263ffffffff1660e01b8152600401612d5a919061509e565b60c06040518083038186803b158015612d7257600080fd5b505afa158015612d86573d6000803e3d6000fd5b505050506040513d601f19601f82011682018060405250810190612daa9190614d30565b909192509091509050508096508197505050612dfa6040518060400160405280600d81526020017f43757272656e74205443423a20000000000000000000000000000000000000008152506113b9565b612e03866114eb565b612e416040518060400160405280600d81526020017f43757272656e74205444423a20000000000000000000000000000000000000008152506113b9565b612e4a856114eb565b8373ffffffffffffffffffffffffffffffffffffffff166323b872dd8a308a6040518463ffffffff1660e01b8152600401612e879392919061510c565b602060405180830381600087803b158015612ea157600080fd5b505af1158015612eb5573d6000803e3d6000fd5b505050506040513d601f19601f82011682018060405250810190612ed99190614bef565b50612f186040518060400160405280601981526020017f526563656976656420746f6b656e732066726f6d2075736572000000000000008152506113b9565b612f566040518060400160405280601281526020017f42616c616e6365206f6620746f6b656e3a2000000000000000000000000000008152506113b9565b612fe78473ffffffffffffffffffffffffffffffffffffffff166370a08231306040518263ffffffff1660e01b8152600401612f92919061509e565b60206040518083038186803b158015612faa57600080fd5b505afa158015612fbe573d6000803e3d6000fd5b505050506040513d601f19601f82011682018060405250810190612fe29190614c49565b6114eb565b60008811156135145761302e6040518060400160405280601b81526020017f546869732074726164652069732070726f66697461626c652e2e2e00000000008152506113b9565b61306c6040518060400160405280601a81526020017f416d6f756e7420746f2073776170206f6e20556e692056333a200000000000008152506113b9565b613075886114eb565b6040518061010001604052808b73ffffffffffffffffffffffffffffffffffffffff16815260200160008054906101000a900473ffffffffffffffffffffffffffffffffffffffff1673ffffffffffffffffffffffffffffffffffffffff168152602001610bb862ffffff1681526020013073ffffffffffffffffffffffffffffffffffffffff168152602001610258426131109190615530565b815260200189815260200160008152602001600073ffffffffffffffffffffffffffffffffffffffff1681525092507f000000000000000000000000000000000000000000000000000000000000000073ffffffffffffffffffffffffffffffffffffffff1663f7729d438b60008054906101000a900473ffffffffffffffffffffffffffffffffffffffff16610bb88c60006040518663ffffffff1660e01b81526004016131c39594939291906150b9565b602060405180830381600087803b1580156131dd57600080fd5b505af11580156131f1573d6000803e3d6000fd5b505050506040513d601f19601f820116820180604052508101906132159190614c49565b91507f000000000000000000000000000000000000000000000000000000000000000073ffffffffffffffffffffffffffffffffffffffff1663414bf389846040518263ffffffff1660e01b815260040161327091906153a1565b602060405180830381600087803b15801561328a57600080fd5b505af115801561329e573d6000803e3d6000fd5b505050506040513d601f19601f820116820180604052508101906132c29190614c49565b506133016040518060400160405280601981526020017f537761707065642070726f666974206f6e20556e6973776170000000000000008152506113b9565b61330a826114eb565b60008054906101000a900473ffffffffffffffffffffffffffffffffffffffff1673ffffffffffffffffffffffffffffffffffffffff1663095ea7b3600160009054906101000a900473ffffffffffffffffffffffffffffffffffffffff16846040518363ffffffff1660e01b81526004016133879291906151cd565b602060405180830381600087803b1580156133a157600080fd5b505af11580156133b5573d6000803e3d6000fd5b505050506040513d601f19601f820116820180604052508101906133d99190614bef565b506134186040518060400160405280601381526020017f4161766520617070726f76656420666f723a20000000000000000000000000008152506113b9565b613421826114eb565b600360009054906101000a900473ffffffffffffffffffffffffffffffffffffffff1673ffffffffffffffffffffffffffffffffffffffff1663617ba03760008054906101000a900473ffffffffffffffffffffffffffffffffffffffff16848c60006040518563ffffffff1660e01b81526004016134a3949392919061522d565b600060405180830381600087803b1580156134bd57600080fd5b505af11580156134d1573d6000803e3d6000fd5b505050506135136040518060400160405280601e81526020017f50726f66697420737570706c696564206261636b20746f20416176653a2000008152506113b9565b5b5050505050505050505050565b61355f6040518060400160405280601f81526020017f456e746572656420636c6f736553686f7274506f736974696f6e28292e2e2e008152506113b9565b6000818561356d9190615530565b90506000806135b06040518060400160405280601081526020017f546f74616c20506f736974696f6e3a20000000000000000000000000000000008152506113b9565b6135b9836114eb565b60008054906101000a900473ffffffffffffffffffffffffffffffffffffffff1673ffffffffffffffffffffffffffffffffffffffff1663095ea7b37f0000000000000000000000000000000000000000000000000000000000000000856040518363ffffffff1660e01b81526004016136349291906151cd565b602060405180830381600087803b15801561364e57600080fd5b505af1158015613662573d6000803e3d6000fd5b505050506040513d601f19601f820116820180604052508101906136869190614bef565b506136c56040518060400160405280601281526020017f556e6920563320617070726f7665642e2e2e00000000000000000000000000008152506113b9565b600060405180610100016040528060008054906101000a900473ffffffffffffffffffffffffffffffffffffffff1673ffffffffffffffffffffffffffffffffffffffff1681526020018873ffffffffffffffffffffffffffffffffffffffff168152602001610bb862ffffff1681526020013073ffffffffffffffffffffffffffffffffffffffff168152602001610258426137629190615530565b815260200189815260200160008152602001600073ffffffffffffffffffffffffffffffffffffffff16815250905060007f000000000000000000000000000000000000000000000000000000000000000073ffffffffffffffffffffffffffffffffffffffff1663f7729d4360008054906101000a900473ffffffffffffffffffffffffffffffffffffffff168a610bb88d60006040518663ffffffff1660e01b81526004016138179594939291906150b9565b602060405180830381600087803b15801561383157600080fd5b505af1158015613845573d6000803e3d6000fd5b505050506040513d601f19601f820116820180604052508101906138699190614c49565b90507f000000000000000000000000000000000000000000000000000000000000000073ffffffffffffffffffffffffffffffffffffffff1663414bf389836040518263ffffffff1660e01b81526004016138c491906153a1565b602060405180830381600087803b1580156138de57600080fd5b505af11580156138f2573d6000803e3d6000fd5b505050506040513d601f19601f820116820180604052508101906139169190614c49565b506139556040518060400160405280601281526020017f53776170207375636365737366756c2e2e2e00000000000000000000000000008152506113b9565b61395e816114eb565b60008890508073ffffffffffffffffffffffffffffffffffffffff1663095ea7b3600160009054906101000a900473ffffffffffffffffffffffffffffffffffffffff16846040518363ffffffff1660e01b81526004016139c09291906151cd565b602060405180830381600087803b1580156139da57600080fd5b505af11580156139ee573d6000803e3d6000fd5b505050506040513d601f19601f82011682018060405250810190613a129190614bef565b50613a516040518060400160405280601381526020017f4161766520617070726f76656420666f723a20000000000000000000000000008152506113b9565b613a5a826114eb565b600360009054906101000a900473ffffffffffffffffffffffffffffffffffffffff1673ffffffffffffffffffffffffffffffffffffffff1663bf92857c896040518263ffffffff1660e01b8152600401613ab5919061509e565b60c06040518083038186803b158015613acd57600080fd5b505afa158015613ae1573d6000803e3d6000fd5b505050506040513d601f19601f82011682018060405250810190613b059190614d30565b909192509091509050508095508196505050613b556040518060400160405280600d81526020017f43757272656e74205443423a20000000000000000000000000000000000000008152506113b9565b613b5e856114eb565b613b9c6040518060400160405280600d81526020017f43757272656e74205444423a20000000000000000000000000000000000000008152506113b9565b613ba5846114eb565b600360009054906101000a900473ffffffffffffffffffffffffffffffffffffffff1673ffffffffffffffffffffffffffffffffffffffff1663573ade818a8460028c6040518563ffffffff1660e01b8152600401613c079493929190615272565b602060405180830381600087803b158015613c2157600080fd5b505af1158015613c35573d6000803e3d6000fd5b505050506040513d601f19601f82011682018060405250810190613c599190614c49565b50613c986040518060400160405280601381526020017f5265706169642064656274206f6e2041617665000000000000000000000000008152506113b9565b600360009054906101000a900473ffffffffffffffffffffffffffffffffffffffff1673ffffffffffffffffffffffffffffffffffffffff1663bf92857c896040518263ffffffff1660e01b8152600401613cf3919061509e565b60c06040518083038186803b158015613d0b57600080fd5b505afa158015613d1f573d6000803e3d6000fd5b505050506040513d601f19601f82011682018060405250810190613d439190614d30565b909192509091509050508095508196505050613d936040518060400160405280600d81526020017f43757272656e74205443423a20000000000000000000000000000000000000008152506113b9565b613d9c856114eb565b613dda6040518060400160405280600d81526020017f43757272656e74205444423a20000000000000000000000000000000000000008152506113b9565b613de3846114eb565b6000600260008060009054906101000a900473ffffffffffffffffffffffffffffffffffffffff1673ffffffffffffffffffffffffffffffffffffffff1673ffffffffffffffffffffffffffffffffffffffff16815260200190815260200160002060009054906101000a900473ffffffffffffffffffffffffffffffffffffffff169050613ea66040518060400160405280601581526020017f557365722061546f6b656e2062616c616e63653a2000000000000000000000008152506113b9565b613f378173ffffffffffffffffffffffffffffffffffffffff166370a082318b6040518263ffffffff1660e01b8152600401613ee2919061509e565b60206040518083038186803b158015613efa57600080fd5b505afa158015613f0e573d6000803e3d6000fd5b505050506040513d601f19601f82011682018060405250810190613f329190614c49565b6114eb565b8073ffffffffffffffffffffffffffffffffffffffff166323b872dd8a308a6040518463ffffffff1660e01b8152600401613f749392919061510c565b602060405180830381600087803b158015613f8e57600080fd5b505af1158015613fa2573d6000803e3d6000fd5b505050506040513d601f19601f82011682018060405250810190613fc69190614bef565b506140056040518060400160405280601a81526020017f52656365697665642061546f6b656e732066726f6d20757365720000000000008152506113b9565b6140436040518060400160405280601481526020017f42616c616e6365206f662061546f6b656e733a200000000000000000000000008152506113b9565b6140d48173ffffffffffffffffffffffffffffffffffffffff166370a08231306040518263ffffffff1660e01b815260040161407f919061509e565b60206040518083038186803b15801561409757600080fd5b505afa1580156140ab573d6000803e3d6000fd5b505050506040513d601f19601f820116820180604052508101906140cf9190614c49565b6114eb565b600360009054906101000a900473ffffffffffffffffffffffffffffffffffffffff1673ffffffffffffffffffffffffffffffffffffffff166369328dec60008054906101000a900473ffffffffffffffffffffffffffffffffffffffff168373ffffffffffffffffffffffffffffffffffffffff166370a08231306040518263ffffffff1660e01b815260040161416c919061509e565b60206040518083038186803b15801561418457600080fd5b505afa158015614198573d6000803e3d6000fd5b505050506040513d601f19601f820116820180604052508101906141bc9190614c49565b8c6040518463ffffffff1660e01b81526004016141db939291906151f6565b602060405180830381600087803b1580156141f557600080fd5b505af1158015614209573d6000803e3d6000fd5b505050506040513d601f19601f8201168201806040525081019061422d9190614c49565b5061426c6040518060400160405280601781526020017f576974686472657720555344432066726f6d20416176650000000000000000008152506113b9565b600360009054906101000a900473ffffffffffffffffffffffffffffffffffffffff1673ffffffffffffffffffffffffffffffffffffffff1663bf92857c8a6040518263ffffffff1660e01b81526004016142c7919061509e565b60c06040518083038186803b1580156142df57600080fd5b505afa1580156142f3573d6000803e3d6000fd5b505050506040513d601f19601f820116820180604052508101906143179190614d30565b9091925090915090505080965081975050506143676040518060400160405280600d81526020017f43757272656e74205443423a20000000000000000000000000000000000000008152506113b9565b614370866114eb565b6143ae6040518060400160405280600d81526020017f43757272656e74205444423a20000000000000000000000000000000000000008152506113b9565b6143b7856114eb565b60008054906101000a900473ffffffffffffffffffffffffffffffffffffffff1673ffffffffffffffffffffffffffffffffffffffff166323b872dd8a308a6040518463ffffffff1660e01b81526004016144149392919061510c565b602060405180830381600087803b15801561442e57600080fd5b505af1158015614442573d6000803e3d6000fd5b505050506040513d601f19601f820116820180604052508101906144669190614bef565b506144a56040518060400160405280601781526020017f526563656976656420555344432066726f6d20757365720000000000000000008152506113b9565b6144e36040518060400160405280601181526020017f42616c616e6365206f6620555344433a200000000000000000000000000000008152506113b9565b61459460008054906101000a900473ffffffffffffffffffffffffffffffffffffffff1673ffffffffffffffffffffffffffffffffffffffff166370a08231306040518263ffffffff1660e01b815260040161453f919061509e565b60206040518083038186803b15801561455757600080fd5b505afa15801561456b573d6000803e3d6000fd5b505050506040513d601f19601f8201168201806040525081019061458f9190614c49565b6114eb565b60008811156147e5576145db6040518060400160405280601b81526020017f546869732074726164652069732070726f66697461626c652e2e2e00000000008152506113b9565b60008054906101000a900473ffffffffffffffffffffffffffffffffffffffff1673ffffffffffffffffffffffffffffffffffffffff1663095ea7b3600160009054906101000a900473ffffffffffffffffffffffffffffffffffffffff168a6040518363ffffffff1660e01b81526004016146589291906151cd565b602060405180830381600087803b15801561467257600080fd5b505af1158015614686573d6000803e3d6000fd5b505050506040513d601f19601f820116820180604052508101906146aa9190614bef565b506146e96040518060400160405280601381526020017f4161766520617070726f76656420666f723a20000000000000000000000000008152506113b9565b6146f2886114eb565b600360009054906101000a900473ffffffffffffffffffffffffffffffffffffffff1673ffffffffffffffffffffffffffffffffffffffff1663617ba03760008054906101000a900473ffffffffffffffffffffffffffffffffffffffff168a8c60006040518563ffffffff1660e01b8152600401614774949392919061522d565b600060405180830381600087803b15801561478e57600080fd5b505af11580156147a2573d6000803e3d6000fd5b505050506147e46040518060400160405280601e81526020017f50726f66697420737570706c696564206261636b20746f20416176653a2000008152506113b9565b5b5050505050505050505050565b60008151905060006a636f6e736f6c652e6c6f679050602083016000808483855afa5050505050565b600061482e614829846153fd565b6153d8565b90508083825260208201905082856020860282011115614851576148506157d5565b5b60005b8581101561488157816148678882614a1b565b845260208401935060208301925050600181019050614854565b5050509392505050565b600061489e61489984615429565b6153d8565b905080838252602082019050828560208602820111156148c1576148c06157d5565b5b60005b858110156148f157816148d78882614a30565b8452602084019350602083019250506001810190506148c4565b5050509392505050565b600061490e61490984615455565b6153d8565b90508281526020810184848401111561492a576149296157da565b5b6149358482856156d0565b509392505050565b60008135905061494c816157fa565b92915050565b600081519050614961816157fa565b92915050565b60008151905061497681615811565b92915050565b600082601f830112614991576149906157d0565b5b81356149a184826020860161481b565b91505092915050565b600082601f8301126149bf576149be6157d0565b5b81356149cf84826020860161488b565b91505092915050565b6000815190506149e781615828565b92915050565b600082601f830112614a0257614a016157d0565b5b8135614a128482602086016148fb565b91505092915050565b600081359050614a2a8161583f565b92915050565b600081359050614a3f81615856565b92915050565b600081519050614a5481615856565b92915050565b600081359050614a698161586d565b92915050565b600081519050614a7e8161586d565b92915050565b600060208284031215614a9a57614a996157e4565b5b6000614aa884828501614952565b91505092915050565b60008060008060808587031215614acb57614aca6157e4565b5b6000614ad987828801614967565b9450506020614aea87828801614967565b9350506040614afb87828801614a6f565b9250506060614b0c87828801614a45565b91505092959194509250565b60008060008060808587031215614b3257614b316157e4565b5b600085013567ffffffffffffffff811115614b5057614b4f6157df565b5b614b5c8782880161497c565b945050602085013567ffffffffffffffff811115614b7d57614b7c6157df565b5b614b89878288016149aa565b935050604085013567ffffffffffffffff811115614baa57614ba96157df565b5b614bb6878288016149aa565b925050606085013567ffffffffffffffff811115614bd757614bd66157df565b5b614be3878288016149ed565b91505092959194509250565b600060208284031215614c0557614c046157e4565b5b6000614c13848285016149d8565b91505092915050565b600060208284031215614c3257614c316157e4565b5b6000614c4084828501614a30565b91505092915050565b600060208284031215614c5f57614c5e6157e4565b5b6000614c6d84828501614a45565b91505092915050565b600080600060608486031215614c8f57614c8e6157e4565b5b6000614c9d86828701614a30565b9350506020614cae8682870161493d565b9250506040614cbf86828701614a5a565b9150509250925092565b60008060008060808587031215614ce357614ce26157e4565b5b6000614cf187828801614a30565b9450506020614d028782880161493d565b9350506040614d1387828801614a5a565b9250506060614d2487828801614a30565b91505092959194509250565b60008060008060008060c08789031215614d4d57614d4c6157e4565b5b6000614d5b89828a01614a45565b9650506020614d6c89828a01614a45565b9550506040614d7d89828a01614a45565b9450506060614d8e89828a01614a45565b9350506080614d9f89828a01614a45565b92505060a0614db089828a01614a45565b9150509295509295509295565b6000614dc98383614f0f565b60208301905092915050565b6000614de18383615071565b60208301905092915050565b614df681615586565b82525050565b614e0581615586565b82525050565b6000614e16826154a6565b614e2081856154ec565b9350614e2b83615486565b8060005b83811015614e5c578151614e438882614dbd565b9750614e4e836154d2565b925050600181019050614e2f565b5085935050505092915050565b6000614e74826154b1565b614e7e81856154fd565b9350614e8983615496565b8060005b83811015614eba578151614ea18882614dd5565b9750614eac836154df565b925050600181019050614e8d565b5085935050505092915050565b6000614ed2826154bc565b614edc818561550e565b9350614eec8185602086016156df565b614ef5816157e9565b840191505092915050565b614f098161561c565b82525050565b614f188161562e565b82525050565b614f2781615640565b82525050565b614f3681615664565b82525050565b614f4581615652565b82525050565b614f5481615676565b82525050565b614f6381615688565b82525050565b614f728161569a565b82525050565b6000614f83826154c7565b614f8d818561551f565b9350614f9d8185602086016156df565b614fa6816157e9565b840191505092915050565b61010082016000820151614fc86000850182614ded565b506020820151614fdb6020850182614ded565b506040820151614fee6040850182615062565b5060608201516150016060850182614ded565b5060808201516150146080850182615071565b5060a082015161502760a0850182615071565b5060c082015161503a60c0850182615071565b5060e082015161504d60e0850182615053565b50505050565b61505c816155d6565b82525050565b61506b816155f6565b82525050565b61507a81615605565b82525050565b61508981615605565b82525050565b6150988161560f565b82525050565b60006020820190506150b36000830184614dfc565b92915050565b600060a0820190506150ce6000830188614dfc565b6150db6020830187614dfc565b6150e86040830186614f69565b6150f56060830185615080565b6151026080830184614f2d565b9695505050505050565b60006060820190506151216000830186614dfc565b61512e6020830185614dfc565b61513b6040830184615080565b949350505050565b60006080820190506151586000830187614dfc565b6151656020830186614dfc565b615172604083018561508f565b61517f6060830184614f4b565b95945050505050565b600060808201905061519d6000830187614dfc565b6151aa6020830186614dfc565b6151b7604083018561508f565b6151c46060830184615080565b95945050505050565b60006040820190506151e26000830185614dfc565b6151ef6020830184615080565b9392505050565b600060608201905061520b6000830186614dfc565b6152186020830185615080565b6152256040830184614dfc565b949350505050565b60006080820190506152426000830187614dfc565b61524f6020830186615080565b61525c6040830185614dfc565b6152696060830184614f3c565b95945050505050565b60006080820190506152876000830187614dfc565b6152946020830186615080565b6152a16040830185614f5a565b6152ae6060830184614dfc565b95945050505050565b600060a0820190506152cc6000830188614dfc565b6152d96020830187615080565b6152e66040830186614f5a565b6152f36060830185614f3c565b6153006080830184614dfc565b9695505050505050565b600060808201905061531f6000830187614f00565b81810360208301526153318186614e0b565b905081810360408301526153458185614e69565b905081810360608301526153598184614ec7565b905095945050505050565b60006020820190506153796000830184614f1e565b92915050565b600060208201905081810360008301526153998184614f78565b905092915050565b6000610100820190506153b76000830184614fb1565b92915050565b60006020820190506153d26000830184615080565b92915050565b60006153e26153f3565b90506153ee8282615712565b919050565b6000604051905090565b600067ffffffffffffffff821115615418576154176157a1565b5b602082029050602081019050919050565b600067ffffffffffffffff821115615444576154436157a1565b5b602082029050602081019050919050565b600067ffffffffffffffff8211156154705761546f6157a1565b5b615479826157e9565b9050602081019050919050565b6000819050602082019050919050565b6000819050602082019050919050565b600081519050919050565b600081519050919050565b600081519050919050565b600081519050919050565b6000602082019050919050565b6000602082019050919050565b600082825260208201905092915050565b600082825260208201905092915050565b600082825260208201905092915050565b600082825260208201905092915050565b600061553b82615605565b915061554683615605565b9250827fffffffffffffffffffffffffffffffffffffffffffffffffffffffffffffffff0382111561557b5761557a615743565b5b828201905092915050565b6000615591826155d6565b9050919050565b60006155a3826155d6565b9050919050565b60008115159050919050565b60006155c182615586565b9050919050565b600061ffff82169050919050565b600073ffffffffffffffffffffffffffffffffffffffff82169050919050565b600062ffffff82169050919050565b6000819050919050565b600060ff82169050919050565b6000615627826156ac565b9050919050565b6000615639826156ac565b9050919050565b600061564b826156ac565b9050919050565b600061565d826155c8565b9050919050565b600061566f826155d6565b9050919050565b60006156818261560f565b9050919050565b600061569382615605565b9050919050565b60006156a5826155f6565b9050919050565b60006156b7826156be565b9050919050565b60006156c9826155d6565b9050919050565b82818337600083830152505050565b60005b838110156156fd5780820151818401526020810190506156e2565b8381111561570c576000848401525b50505050565b61571b826157e9565b810181811067ffffffffffffffff8211171561573a576157396157a1565b5b80604052505050565b7f4e487b7100000000000000000000000000000000000000000000000000000000600052601160045260246000fd5b7f4e487b7100000000000000000000000000000000000000000000000000000000600052603260045260246000fd5b7f4e487b7100000000000000000000000000000000000000000000000000000000600052604160045260246000fd5b600080fd5b600080fd5b600080fd5b600080fd5b600080fd5b6000601f19601f8301169050919050565b61580381615586565b811461580e57600080fd5b50565b61581a81615598565b811461582557600080fd5b50565b615831816155aa565b811461583c57600080fd5b50565b615848816155b6565b811461585357600080fd5b50565b61585f81615605565b811461586a57600080fd5b50565b6158768161560f565b811461588157600080fd5b5056fe5468697320636f6e7472616374206e6f7720686f6c647320746f6b656e2062616c616e6365206f663a204f70656e2073686f727420706f736974696f6e20726571756573742072656365697665642e2e2e436c6f73652073686f727420706f736974696f6e20726571756573742072656365697665642e2e2e456e74657265642066756e6374696f6e20726571756573744f70656e28292e2e2e4f70656e206c6f6e6720706f736974696f6e20726571756573742072656365697665642e2e2e436c6f7365206c6f6e6720706f736974696f6e20726571756573742072656365697665642e2e2e456e74657265642066756e6374696f6e2072657175657374436c6f736528292e2e2e5468697320636f6e7472616374206e6f7720686f6c64732055534443206f663a20a2646970667358221220f3dfc871499548a8b366c144e5d4bf6f03dd059064bd784ba1a8c620e0ea218064736f6c63430008070033",
  "linkReferences": {},
  "deployedLinkReferences": {}
}